:100000000C9494050C94BE050C94BE050C94BE058E
:100010000C94BE050C94BE050C94BE050C94BE0554
:100020000C94BE050C94BE050C94BE050C94BE0544
:100030000C94BE050C94BE050C94BE050C94BE0534
:100040000C9489180C94BE050C94BE050C94BE0546
:100050000C94BE050C94BE050C94BE050C94BE0514
:100060000C94BE050C94BE050C94BE050C94BE0504
:100070000C94BE050C94BE050C94BE050C94BE05F4
:100080000C94BE050C94F4090C94BE05000000000D
:10009000003E5B4F5B3E3E6B4F6B3E1C3E7C3E1C0E
:1000A000183C7E3C181C577D571C1C5E7F5E1C0054
:1000B000183C1800FFE7C3E7FF0018241800FFE70B
:1000C000DBE7FF30483A060E2629792926407F05CE
:1000D0000507407F05253F5A3CE73C5A7F3E1C1CE4
:1000E00008081C1C3E7F14227F22145F5F005F5FA4
:1000F00006097F017F006689956A60606060609490
:10010000A2FFA29408047E040810207E2010080894
:100110002A1C08081C2A08081E101010100C1E0C9F
:100120001E0C30383E3830060E3E0E060000000031
:100130000000005F00000007000700147F147F1418
:10014000242A7F2A1223130864623649562050005D
:1001500008070300001C2241000041221C002A1C49
:100160007F1C2A08083E0808008070300008080834
:100170000808000060600020100804023E51494554
:100180003E00427F400072494949462141494D3372
:100190001814127F1027454545393C4A49493141D9
:1001A000211109073649494936464949291E0000A7
:1001B00014000000403400000008142241141414FC
:1001C0001414004122140802015909063E415D59E8
:1001D0004E7C1211127C7F494949363E41414122F1
:1001E0007F4141413E7F494949417F090909013E1B
:1001F000414151737F0808087F00417F4100204042
:10020000413F017F081422417F404040407F021C53
:10021000027F7F0408107F3E4141413E7F0909096A
:10022000063E4151215E7F09192946264949493236
:1002300003017F01033F4040403F1F2040201F3FFC
:100240004038403F63140814630304780403615981
:10025000494D43007F4141410204081020004141C3
:10026000417F04020102044040404040000307086F
:100270000020545478407F2844443838444444286B
:10028000384444287F385454541800087E09021812
:10029000A4A49C787F0804047800447D400020409A
:1002A000403D007F1028440000417F40007C0478DE
:1002B00004787C080404783844444438FC18242426
:1002C0001818242418FC7C080404084854545424A6
:1002D00004043F44243C4040207C1C2040201C3C23
:1002E0004030403C44281028444C9090907C44641A
:1002F000544C4400083641000000770000004136AD
:10030000080002010204023C2623263C1EA1A16132
:10031000123A4040207A3854545559215555794164
:100320002254547842215554784020545579400C39
:100330001E5272123955555559395454545939551C
:100340005454580000457C410002457D420001455F
:100350007C407D1211127DF0282528F07C545545F3
:10036000002054547C547C0A097F4932494949325F
:100370003A4444443A324A4848303A4141217A3A70
:1003800042402078009DA0A07D3D4242423D3D403C
:1003900040403D3C24FF2424487E4943662B2FFCEB
:1003A0002F2BFF0929F620C0887E09032054547999
:1003B000410000447D413048484A32384040227A6A
:1003C000007A0A0A727D0D19317D2629292F2826E7
:1003D0002929292630484D402038080808080808EF
:1003E0000808382F10C8ACBA2F102834FA00007B48
:1003F000000008142A142222142A1408550055005B
:1004000055AA55AA55AAFF55FF55FF000000FF0049
:10041000101010FF00141414FF001010FF00FF1044
:1004200010F010F0141414FC001414F700FF000076
:10043000FF00FF1414F404FC141417101F10101FF5
:10044000101F1414141F00101010F0000000001FE3
:10045000101010101F10101010F010000000FF10EE
:100460001010101010101010FF10000000FF1400EA
:1004700000FF00FF00001F10170000FC04F414141C
:100480001710171414F404F40000FF00F7141414E8
:1004900014141414F700F7141414171410101F1068
:1004A0001F141414F4141010F010F000001F101F8B
:1004B0000000001F14000000FC140000F010F010F9
:1004C00010FF10FF141414FF141010101F00000070
:1004D00000F010FFFFFFFFFFF0F0F0F0F0FFFFFF74
:1004E0000000000000FFFF0F0F0F0F0F38444438CB
:1004F00044FC4A4A4A347E02020606027E027E021A
:1005000063554941633844443C04407E201E200624
:10051000027E020299A5E7A5991C2A492A1C4C7261
:1005200001724C304A4D4D303048784830BC625AE8
:10053000463D3E494949007E0101017E2A2A2A2A78
:100540002A44445F444440514A444040444A514054
:100550000000FF0103E080FF000008086B6B083615
:1005600012362436060F090F060000181800000086
:100570001010003040FF0101001F01011E00191D75
:100580001712003C3C3C3C00000000002200FF2110
:1005900000000103070F1F3F7F0080C0E0F0F8FC60
:1005A000FEDB40A4A62EAF2000A1C8D300408DAE34
:1005B000D580A800006000000000000000000000DE
:1005C00000000000E000000000000000000000004B
:1005D000000001E00000000000000000000000003A
:1005E0000001F0000000000000000000000000001A
:1005F00003F0000000000000000000000000000701
:10060000F00000000000000000000000000007F8FB
:10061000000000000000000000000000000FF800D3
:10062000000003C0007E000001E0007F0FF8000022
:100630000003C000FE000001E000FFEFF800000032
:1006400003C000FE000001E000FFFFF8000000030F
:10065000C000F00000000F007FFE7FC0000003C05C
:1006600000F00000000F003FFE7FF83FF1FBCFFCE1
:10067000FEF3BC3DEFE01FFE7FFF7FFBFFDFFEFED2
:10068000FFBC3DEFE01FC6FFFF7FFBFFDFFEFEFF6D
:10069000BC3DEFE00FE3C7FE787BC3DE1EF0FFBC7E
:1006A0003DEF0007FF87FC787BC3DE1EF0F83C3D82
:1006B000EF0001FFFFF0007BC3C01EF0F03C3DEFF8
:1006C0000001F37FE03FFBC3CFFEF0F03C3DEF00C5
:1006D00003E33F807FFBC3DFFEF0F03C3DEF00070C
:1006E000E73C00787BC3DE1EF0F03C3DEF0007FFE7
:1006F000BE00787BC3DE1EF0F03C3DEF0007FFFE3E
:1007000000787BC3DE1EF0F03C3DEF000FFFFE00E3
:100710007FFBFFDFFEF0F03FFDEFE00FFFFF007F0C
:10072000FBFFDFFEF0F03FFDEFE00FF9FF003E7949
:10073000F9CF9EF0F01F3DE7E01FF1FF0000000041
:1007400000000000000000001F80FF007FFFFFFF8F
:10075000FFFFFFFFFFFFE01C007F007FFFFFFFFEAA
:10076000B46D888D18E000001F007FFFFFFFFE952D
:10077000AD7DB577E000000F007FFFFFFFFEA5AD68
:100780009D8D19E0000006007FFFFFFFFEB5ADED77
:10079000B57EE000000000000180000000000000C5
:1007A000000000038000000000000000000007C0FF
:1007B00000000000000000000007C0000000000072
:1007C000000000000FC00000000000000000001F3B
:1007D000E00000000000000000001FE0000000003A
:1007E00000000000003FE0000000000000000000EA
:1007F0003FF00000000000000000007FF00000005B
:10080000000000001FF87FF0000000000000003F23
:10081000FE7FF0000000000000003FFF7FF00000BE
:1008200000000000001FFFFBE000000000000000CF
:100830000FFFF9FFC00000000000000FFFF9FFF8F4
:1008400000000000000007FFF1FFFF0000000000B3
:100850000003FC73FFFF80000000000001FE3FFF6B
:10086000FF80000000000000FF1E0FFF00000000DE
:100870000000007FFE1FFC000000000000003FFFA2
:10088000FFF8000000000000000FDFFFE0000000A4
:10089000000000001F19FFC0000000000000003F22
:1008A0003CFF00000000000000007E7CF80000001B
:1008B00000000000007FFE7C00000000000000003F
:1008C000FFFFFC0000000000000000FFFFFE000032
:1008D000000000000000FFFFFE000000000000001C
:1008E00001FFEFFE0000000000000001FFCFFE004E
:1008F00000000000000003FF07FE000000000000F1
:100900000003FC07FE0000000000000003F003FEEF
:1009100000000000000000018000FE000000000058
:1009200000000000007E0000000000000000000049
:100930003E000000000000000000000C000000006D
:100940000000078000FC000003C0000000078001D9
:10095000FC000003C0000000078001FC000003C091
:10096000000000078001E00000001E00000007807A
:1009700001E00000001E007FE3F79FF9FDE7787BB0
:10098000DFC0FFF7FFBFFDFDFF787BDFC0FFF7FF94
:10099000BFFDFDFF787BDFC0F0F787BC3DE1FF784E
:1009A0007BDE00F0F787BC3DE1F0787BDE0000F7EE
:1009B00087803DE1E0787BDE007FF7879FFDE1E007
:1009C000787BDE00FFF787BFFDE1E0787BDE00F09B
:1009D000F787BC3DE1E0787BDE00F0F787BC3DE1C6
:1009E000E0787BDE00F0F787BC3DE1E0787BDE005D
:1009F000FFF7FFBFFDE1E07FFBDFC0FFF7FFBFFDBB
:100A0000E1E07FFBDFC07CF3F39F3DE1E03E7BCF85
:100A1000C00000000000000000000000FFFFFFFF1A
:100A2000FFFFFFFFFFFFC0FFFFFFFFFD68DB111AA5
:100A300031C0FFFFFFFFFD2B5AFB6AEFC0FFFFFF36
:100A4000FFFD4B5B3B1A33C0FFFFFFFFFD6B5BDB22
:100A50006AFDC00000000A0B0C000000000000014D
:100A60000405060000000000000000000000000077
:100A70000000000000000000000000000000000076
:100A80000000000000000000010204081020408067
:100A90000102040810204080081001020408102000
:100AA00040800102010204081020408004804020A0
:100AB0001008040201010204081020408005050509
:100AC00005050505050202020202020202070704EB
:100AD00004040404040404070703030303030303D7
:100AE00003070101010101010101060606060606D0
:100AF00006060000390036003300300021002000D7
:100B0000630000003B003800350032002300620023
:100B1000650000003A003700340031002200610017
:100B20006400BD071A09ED0711241FBECFEFD0E105
:100B3000DEBFCDBF11E0A0E0B1E0EAEBF7E300E0FB
:100B40000BBF02C007900D92AE3BB107D9F722E070
:100B5000AEEBB1E001C01D92A23EB207E1F715E095
:100B6000C3E9D5E004C02197FE010E94961AC1395D
:100B7000D107C9F70E94641A0C94D01B0C94000092
:100B80000F9381E192E00E94E20801E021E04CE352
:100B900062E082EC91E00E940E1482EC91E00E94EF
:100BA000F01382EC91E00E94851761E08CE20F91D6
:100BB0000C948A19CF93DF93C82FD62F862F0E94CB
:100BC000F41921E0892B09F420E02C1769F065E085
:100BD00070E080E090E00E94F9188D2F0E94F419D7
:100BE000C1E0892B09F4C0E08C2FDF91CF910895EB
:100BF00060910801709109018091C0010E94DA059D
:100C00008093C10160910601709107018091BF013D
:100C10000E94DA058093BE012091C0019091C1012C
:100C200021110FC0992369F020910A0130910B0125
:100C300028303105F4F42F5F3F4F30930B012093A0
:100C40000A019093C0019091BF0191110FC08823B8
:100C500069F020910A0130910B012230310564F0D6
:100C60002150310930930B0120930A018093BF0179
:100C7000089528E030E0E1CF21E030E0F3CFE091CB
:100C80000A01F0910B013197E830F10508F070C1CD
:100C9000E45BF94F0C94961A5406B8079706B7060A
:100CA000F30633075307880782EC91E00E94F013A4
:100CB00062E082EC91E00E94731181E090E09093F9
:100CC000D5018093D4019093D3018093D20185E024
:100CD00090E09093CF018093CE011092D1011092B9
:100CE000D0016CE071E082EC91E00E94591A69E158
:100CF00071E082EC91E00E94591A8CE390E09093AD
:100D0000CF018093CE011092D1011092D00169E100
:100D100071E082EC91E00E94591A69E171E082EC85
:100D200091E00E94591A82EC91E00C94851782ECB4
:100D300091E00E94F01362E082EC91E00E94731156
:100D400081E090E09093D5018093D4019093D301FA
:100D50008093D2011092CF011092CE0184E190E0F5
:100D60009093D1018093D00161E171E0D8CF82EC02
:100D700091E00E94F01362E082EC91E00E94731116
:100D800081E090E09093D5018093D4019093D301BA
:100D90008093D2011092CF011092CE0184E190E0B5
:100DA0009093D1018093D00165E171E082EC91E0F4
:100DB0000E94591A6BE171E082EC91E00E94591A8D
:100DC0001092CF011092CE018DE290E09093D1016C
:100DD0008093D00160E271E082EC91E00E94591AA8
:100DE00066E271E09CCF82EC91E00E94F01362E039
:100DF00082EC91E00E94731181E090E09093D50124
:100E00008093D4019093D3018093D2011092CF01AB
:100E10001092CE018CE090E09093D1018093D001AC
:100E20006BE271E082EC91E00E94591A1092CF01BE
:100E30001092CE018DE190E09093D1018093D0018A
:100E400061E371E082EC91E00E94591A1092CF01A7
:100E50001092CE0180E390E09093D1018093D00175
:100E600069E371E05CCF82EC91E00E94F01362E0F4
:100E700082EC91E00E94731181E090E09093D501A3
:100E80008093D4019093D3018093D2011092CF012B
:100E90001092CE0184E190E09093D1018093D00133
:100EA00060E471E03CCF82EC91E00E94F01362E0DC
:100EB00082EC91E00E94731181E090E09093D50163
:100EC0008093D4019093D3018093D2011092CF01EB
:100ED0001092CE0184E190E09093D1018093D001F3
:100EE00066E471E082EC91E00E94591A61E082ECC4
:100EF00091E00E94731188E290E09093CF0180937B
:100F0000CE019093D1018093D0016CE471E007CFC2
:100F100082EC91E00E94F01362E082EC91E00E948A
:100F2000731181E090E09093D5018093D401909368
:100F3000D3018093D2011092CF011092CE0184E1AF
:100F400090E09093D1018093D00166E171E082EC52
:100F500091E00E94591A1092CF011092CE018DE2B9
:100F600090E09093D1018093D0016CE171E0D7CEF5
:100F700008950E94F8050C943F068F929F92AF92BD
:100F8000BF92CF92DF92EF92FF920F9361E172E0F6
:100F900082E092E00E94781880EA882E86E8982EF7
:100FA000AA24A394B12C90E8C92E9AE1D92E96E0F8
:100FB000E92EF12C0FEF21E132E040E460E882EC11
:100FC00091E00E9456120F91FF90EF90DF90CF902A
:100FD000BF90AF909F908F90089582EC91E00C9419
:100FE000A112CF93CFB7F89480911002811123C042
:100FF000E5ECFAE08491E0E9FAE09491E82FF0E082
:10100000EE0FFF1FEE5EF44FA591B491EC91E92332
:1010100021F461E088E00E94C61961E088E00E9446
:101020008A196C9A6E9A61E089E00E948A1961E0DF
:101030008AE00E948A19809110028F5F80931002CB
:10104000CFBFCF91089590E080E008958091450250
:1010500090914602891B990B0895909146028091C8
:1010600045022FEF3FEF981748F4E92FF0E0E95BD6
:10107000FD4F208130E09F5F90934602C9010895A3
:10108000E091460280914502E81730F4F0E0E95B18
:10109000FD4F808190E008958FEF9FEF08950895B0
:1010A000CF93DF93EC01E0911D02F0911E02309787
:1010B000F1F090914602809145029817C0F090E0BF
:1010C000292F30E02617370754F4DE01A20FB31F93
:1010D0004C91295B3D4FD9014C939F5FF1CF10920A
:1010E000460260934502CB01DF91CF910994DF91D5
:1010F000CF910895E0911F02F0912002309729F0DE
:10110000109223021092220209940895CF93DF9344
:101110001F92CDB7DEB76983209121022223F9F017
:1011200020912202203258F021E030E0FC0133838C
:10113000228390E080E00F90DF91CF91089580911D
:101140002302E82FF0E0EC5DFD4F998190838F5FE3
:10115000809323028093220281E090E0ECCF61E053
:10116000CE0101960E94B309F7CFCF92DF92EF92A2
:10117000FF920F931F93CF93DF937C01CB018A01E2
:1011800020912102222389F0EB016B01C40ED51EB0
:10119000CC15DD0569F06991D701ED91FC910190C5
:1011A000F081E02DC7010995F3CF642F0E94B309A8
:1011B000C801DF91CF911F910F91FF90EF90DF90C9
:1011C000CF90089510924602109245021092230289
:1011D000109222020E942B098AE798E00E94DF0900
:1011E00080E598E00C94DA09CB01BA010C94490926
:1011F00081E08093210260934402109223021092B6
:10120000220208950C94F8080F93062F21E04091D4
:10121000220264E272E0809144020E945C09109212
:10122000230210922202109221020F91089561E090
:101230000C940409E1E1F2E01382128288EE93E05B
:10124000A0E0B0E084839583A683B78387E591E02F
:101250009183808308951092D40281E08093D2021A
:101260001092D10261E083E10E94C61961E082E13F
:101270000E94C619E1E7F0E080818E7F8083808143
:101280008D7F808388E48093700085E48093740070
:1012900008959B01AC0160E074E284EF90E00E944D
:1012A000741A2051310941095109569547953795CE
:1012B00027952093700008950F93413208F04BC09A
:1012C0009091D4029111FCCF92E09093D4020093BC
:1012D000D2029FEF909367021092AC024093AB0250
:1012E000362FADEAB2E0FB019E2F931B941770F1ED
:1012F0001092D3029091D302880F892B8093D3024E
:101300008091D102813029F51092D1028091D302CF
:10131000809373008091740083FDF8CF85EC8093F7
:101320007400222321F08091D4028230D1F3809185
:1013300067028F3F91F080916702803281F0809147
:101340006702803371F084E00F91089591919D932D
:10135000CBCF85EEE4CF81E0F7CF80E0F5CF82E020
:10136000F3CF83E0F1CF20918902260F3327331F7B
:1013700021323105ECF42091D402FC0190E080E0B0
:10138000243069F082E00895A09189022191AC0196
:1013900045575D4FA40FB52FB11D2C9301968617AD
:1013A00098F380918902680F6093890280E0089524
:1013B00081E008959093CE028093CD02089590939A
:1013C000D0028093CF02089585ED809374008091C0
:1013D000740084FDFCCF1092D402089585EC8093B4
:1013E00074001092D40208951F920F920FB60F92BC
:1013F00011240BB60F922F933F934F935F936F93EC
:101400007F938F939F93AF93BF93EF93FF938091BD
:101410007100887F803609F44EC008F041C08832E0
:1014200009F4AAC028F5803109F49EC0C8F48823C5
:1014300009F4FBC0883009F497C0FF91EF91BF9188
:10144000AF919F918F917F916F915F914F913F915C
:101450002F910F900BBE0F900FBE0F901F901895FD
:10146000883109F489C0803241F78093670215C042
:10147000803409F49EC048F48033B9F38833E9F628
:10148000809367020E94EE09D8CF803509F485C0A9
:10149000883509F496C0883481F60E94E409CDCFDE
:1014A000883909F48CC038F5883729F050F488362B
:1014B00011F0803711F683E08093D4021092680215
:1014C00057C0883809F47BC0803919F0803809F09A
:1014D000B4CF80916802803208F071C0E091680258
:1014E00081E08E0F8093680280917300F0E0E759ED
:1014F000FD4F80833DC0803B39F0E0F4803A09F431
:1015000079C0883A09F099CF84E08093D402109290
:101510008A0210928902E091CF02F091D0020995DF
:101520008091890281110FC081E08093890210921D
:101530008B0209C0803C09F476C0883C09F473C072
:10154000883B09F07ACFE0918A0281E08E0F809388
:101550008A02F0E0E557FD4F8081809373009091FF
:101560008A028091890229C08091D30280937300FE
:1015700085EC8093740061CF9091AC028091AB02B6
:10158000981758F5E091AC0281E08E0F8093AC0281
:10159000F0E0E355FD4F8081E9CFE091AC0281E0BE
:1015A0008E0F8093AC0280917300F0E0E355FD4F05
:1015B00080839091AC028091AB029817C8F285E8C5
:1015C000D8CFE091AC0281E08E0F8093AC02809185
:1015D0007300F0E0E355FD4F80838091D2028111CA
:1015E0005CCF81E08093D10284EA809374001092F2
:1015F000D40223CF0E94EE0980916802803230F439
:10160000E0916802F0E0E759FD4F108260916802B6
:1016100070E0E091CD02F091CE0289E692E009956A
:10162000109268020ACF85ECE0CF1092670235CFA6
:1016300008952F923F924F925F926F927F928F9276
:101640009F92AF92BF92CF92DF92EF92FF920F9351
:101650001F93CF93DF9300D000D000D0CDB7DEB77B
:101660003C016A013E832D83FC82EB825801A41A5F
:10167000B50AB7FE03C0B194A194B1088D809E80D5
:10168000861A970A97FE03C09194819491088A1450
:101690009B045CF0902F812F0D811E819D838E8392
:1016A0009C2D8D2D6B01692F782F0C151D055CF07D
:1016B0009D818E817E836D83692F782F902F812F5E
:1016C0008601C92ED82E1601201A310A2B012D8130
:1016D0003E81421A530A57FE03C051944194510867
:1016E000710137FE03C03FEFE31AF30AF594E79464
:1016F0008D819E81861797075CF5A1E0B0E0BA83E3
:10170000A983C016D1064CF1D301ED91FC9104845C
:10171000F585E02D2B813C81A8016D817E818A14A5
:101720009B041CF04D815E81B801C3010995E4184A
:10173000F508F7FE0AC02D813E8189819A81280F24
:10174000391F3E832D83E20CF31C0F5F1F4FD9CF4F
:101750002FEF3FEF3A832983D4CF26960FB6F89424
:10176000DEBF0FBECDBFDF91CF911F910F91FF90D4
:10177000EF90DF90CF90BF90AF909F908F907F9031
:101780006F905F904F903F902F9008950895DC01E7
:10179000ED91FC910084F185E02D09940F931F9346
:1017A000DC01ED91FC91048CF58DE02D09951F91E4
:1017B0000F9108950F931F93DC01ED91FC91068C1E
:1017C000F78DE02D09951F910F910895EF92FF92EB
:1017D0000F931F93DC01ED91FC9100A0F1A1E02D8E
:1017E00009951F910F91FF90EF9008958F929F920E
:1017F000AF92BF92CF92DF92EF92FF920F931F931F
:10180000CF93DF93EC015B014A0169017801E88124
:10181000F9810284F385E02D0995C80CD91C860155
:1018200001501109E881F9810488F589E02D9501BD
:10183000A401B501CE010995E881F9810688F789EF
:10184000E02DCE01DF91CF911F910F91FF90EF908E
:10185000DF90CF90BF90AF909F908F9009948F9220
:101860009F92AF92BF92CF92DF92EF92FF920F932F
:101870001F93CF93DF93EC015B014A016901E8817B
:10188000F9810284F385E02D099595012C0D3D1D0C
:1018900021503109E881F9810488F589E02D78012A
:1018A0008401A401B501CE010995E881F98106887A
:1018B000F789E02DCE01DF91CF911F910F91FF901D
:1018C000EF90DF90CF90BF90AF909F908F90099452
:1018D0004F925F926F927F928F929F92AF92BF9240
:1018E000CF92DF92EF92FF920F931F93CF93DF93EC
:1018F0006C012B015A0139014801DC01ED91FC9189
:101900000284F385E02D0995E201640C751CD60173
:10191000ED91FC91C615D7055CF40088F189E02DA6
:1019200087019401A501BE01C60109952196EFCF5B
:101930000688F789E02DC601DF91CF911F910F91A5
:10194000FF90EF90DF90CF90BF90AF909F908F90DF
:101950007F906F905F904F900994EF92FF920F935A
:101960001F93DC011A960D911C911B9718962D91CF
:101970003C911997ED91FC9100A0F1A1E02D7B0124
:1019800050E040E070E060E009951F910F91FF90FA
:10199000EF9008956F927F928F929F92AF92BF9235
:1019A000CF92DF92EF92FF920F931F93CF93DF932B
:1019B000EC016B015A0139014801E881F981028487
:1019C000F385E02D0995E881F9810288F389E02DFE
:1019D00087019301A501B601CE010995A501480D26
:1019E000591D41505109E881F9810288F389E02DA0
:1019F0009301B601CE010995E881F9810088F1894A
:101A0000E02D9401A501B601CE010995C60CD71CA5
:101A1000B60161507109E881F9810088F189E02DF2
:101A20009401A501CE010995E881F9810688F7891D
:101A3000E02DCE01DF91CF911F910F91FF90EF909C
:101A4000DF90CF90BF90AF909F908F907F906F90DE
:101A5000099408956F927F928F929F92AF92BF9256
:101A6000CF92DF92EF92FF920F931F93CF93DF936A
:101A70005C01EB016A01490138018701DC01ED914C
:101A8000FC916217730719F5641675062CF0962DF4
:101A9000872D3A01C92ED82E9601261937092F5FB6
:101AA0003F4F048CF58DE02DA301BE01C5010995C2
:101AB000DF91CF911F910F91FF90EF90DF90CF902A
:101AC000BF90AF909F908F907F906F900895461534
:101AD000570591F42617370724F0892D4B01C22FA3
:101AE000D82F9E01281939092F5F3F4F068CF78D9B
:101AF000E02DA601B401DACF0284F385E02D09952B
:101B0000D501ED91FC910488F589E02D83019401C4
:101B1000A601BE01C5010995D501ED91FC9106888C
:101B2000F789E02DC501DF91CF911F910F91FF90B3
:101B3000EF90DF90CF90BF90AF909F908F907F906D
:101B40006F900994FC016370668B84819581268176
:101B50003781613039F0633029F09187808733878E
:101B60002287089531872087938782870895FC0113
:101B70001382128289E691E0918380837583648366
:101B8000578346837187608753874287168A1586F5
:101B900014861786168681E0858B848B2FEF3FEFA6
:101BA000338B228B318B208B878B108E128E118E74
:101BB00008953F924F925F926F927F928F929F9281
:101BC000AF92BF92CF92DF92EF92FF920F931F934B
:101BD000CF93DF93CDB7DEB72A970FB6F894DEBF69
:101BE0000FBECDBF9A8789877E836D8358874F83C9
:101BF00029013701DC01ED91FC910284F385E02D90
:101C00000995C801079697FD07969C0193E03595C5
:101C100027959A95E1F73A832983912C812CB12C51
:101C2000A12C312C8F8198858A0D9B1D9C838B83E1
:101C3000A614B704ACF5F12CE12CE016F10644F53E
:101C4000C70187709927330C892B59F4F70183E07A
:101C5000F595E7958A95E1F7E80DF91DE40DF51D79
:101C6000349037FE11C0A985BA85ED91FC9111978A
:101C70000484F585E02D96014B815C816D817E8128
:101C80006E0D7F1DCD010995BFEFEB1AFB0AD5CF75
:101C90002FEFA21AB20A89819A81880E991EC2CFAB
:101CA000A985BA85ED91FC9111970688F789E02DF9
:101CB000CD012A960FB6F894DEBF0FBECDBFDF91DF
:101CC000CF911F910F91FF90EF90DF90CF90BF9039
:101CD000AF909F908F907F906F905F904F903F90CC
:101CE00009942F923F924F925F926F927F928F92C0
:101CF0009F92AF92BF92CF92DF92EF92FF920F939B
:101D00001F93CF93DF93CDB7DEB76A970FB6F894E2
:101D1000DEBF0FBECDBF9A8F898F7A8369834A0158
:101D2000D22E18870F833701BC2CDC0159962D91D8
:101D30003C915A972115310509F015C118968D91DE
:101D40009C911997681779070CF0D7C11A968D9155
:101D50009C91481759070CF0D0C14C2C512CB6E07F
:101D6000CB9E600D711D11247C876B87161617069C
:101D70000CF0C3C1EA2DF0E0FA87E98793E0EE0F9B
:101D8000FF1F9A95E1F7F88BEF87CF01840F951F1E
:101D9000181619060CF0B1C1A98DBA8D58968C9100
:101DA000811104C0BFEABD1508F4D394A98DBA8D82
:101DB000ED91FC9111970284F385E02DCD010995F9
:101DC000B5E0DB9EC0011124E981FA81FC83EB833D
:101DD000312C212C9C0124573F4F388F2F8B4A2DBB
:101DE00050E05E8B4D8BEF89F88DE20DF31D449131
:101DF0009E828D82D12CC12C69817A81620D731DE6
:101E00007A8B698B842F90E09C8B8B8BE98DFA8D7C
:101E1000A081B18140FF82C0F1E0BF126FC0AF125C
:101E20006DC01C96ED91FC912F813885A4014C0D5D
:101E30005D1D69897A89898D9A8D0995EB89FC895F
:101E4000F595E7954E2F5FEFC51AD50A6D817E8116
:101E50008D899E89680F791F7E836D8398E0C916EE
:101E6000D10481F6AFEF2A1A3A0AEB81FC81E40D26
:101E7000F51DFC83EB83F5E02F16310409F0B3CF99
:101E80002F81388526153705B9F0A98DBA8DED91CA
:101E9000FC91B1E0BB1257C0AB1255C069817A8189
:101EA0006B5F7F4F0088F189E02D830128E030E0EF
:101EB000A401898D9A8D0995A98DBA8DED91FC911A
:101EC00011970688F789E02DCD016A960FB6F89430
:101ED000DEBF0FBECDBFDF91CF911F910F91FF905D
:101EE000EF90DF90CF90BF90AF909F908F907F90BA
:101EF0006F905F904F903F902F9009941E96ED91B8
:101F0000FC91EF80F88409851A8592014D815E81EC
:101F10006B817C81898D9A8D099590CF2F81388531
:101F20002615370509F48ACF31E0B31207C0A31292
:101F300005C01C96ED91FC91930178CF1E96ED9112
:101F4000FC917301E0CF6B857C856419750906846B
:101F5000F785E02D73010F8518899201A401898D01
:101F60009A8D0995A9CFF9013496949132974591AC
:101F70005491D91AB7E0DB9E400D511D1124F9018F
:101F8000259134913C8B2B8BFA0125903490FA01EA
:101F90003296749031963491398B329664903196A2
:101FA000449041E04C1518F04A1508F07FC0662DAA
:101FB000062C000C770B7C836B83842D042C000C87
:101FC000990B9E838D83A98DBA8DED91FC9111970C
:101FD0000284F385E02DCD010995512CD12CC12C23
:101FE000EA2DF0E0FA87E9872B2D30E03C872B873C
:101FF000A401440D511D47FC5A95588F4F8B6981A0
:102000007A81660D711D67FC7A957E876D87798967
:10201000C71608F051CF2C2D30E04D815E81420F64
:10202000531FA985BA854A9FC0014B9F900D5A9FA7
:10203000900D1124FC01E80DF91DF88BEF87852D1B
:10204000612C4F89588D420F531F5E8B4D8B671447
:1020500008F050C044244394480E877041F4C101F5
:102060000196EB89FC89E20DF31DD4901C01D7FE8B
:1020700019C0A98DBA8DED91FC91662D70E0B1E08B
:10208000BB1219C0AB1217C02D853E85620F731F9E
:102090000484F585E02D2F8138854D895E89898DF1
:1020A0009A8D0995DD0C6394842DD1CF1E821D82FB
:1020B0001C821B8288CF4B815C81640F751FAB85AE
:1020C000BC856A9FC0016B9F900D7A9F900D112473
:1020D00069817A81680F791F0684F785E02DEF808A
:1020E000F88409851A859D014F855889898D9A8DB7
:1020F0000995D8CF570CC3948ACF6A960FB6F89437
:10210000DEBF0FBECDBFDF91CF911F910F91FF902A
:10211000EF90DF90CF90BF90AF909F908F907F9087
:102120006F905F904F903F902F9008958F929F9265
:10213000AF92CF92EF92FF920F931F93CF93DF93C3
:10214000EC01262F898D9A8D009709F051C06A30D5
:10215000D1F41D861C868D8948E0849F900111244E
:102160008E859F85820F931F9F878E8781E090E0E9
:10217000DF91CF911F910F91FF90EF90CF90AF9093
:102180009F908F9008956D3089F3CC88AD888F89AA
:102190008823C1F08C859D8536E0C39E800D911DFE
:1021A0001124488559854817590764F44E855F8581
:1021B0001D861C8638E0A39EC0011124840F951F44
:1021C0009F878E87EA88FB88088919894E855F85F5
:1021D0006C857D85CE010E94710E2C898C859D8534
:1021E00046E0249F800D911D11249D878C87BECFD2
:1021F0006A3069F41D861C86FC013696E4912D89AF
:102200008E859F85E29F800D911D1124ADCF6D308D
:1022100009F4ACCFFC0134963491631708F4A6CFCF
:102220003196E491E61708F4A1CFFC01329685902F
:102230009490462F431B342F47E0349F800C911C11
:102240001124F401329634913196E4913323A9F1AB
:10225000EE2399F1CC88F4013596E491AD884F894D
:10226000442301F10E2E000CFF0BE30FF11DCE9E57
:10227000A001CF9E500D11246C857D85460F571F00
:1022800068857985641775076CF44E855F851D86B2
:102290001C86FC013696E491AE9E400D511D112422
:1022A0005F874E87EA88FB88088919894E855F8594
:1022B0006C857D85CE010E94710EF4013496E49107
:1022C0002C898C859D85E29F800D911D11248DCFD9
:1022D000611101C061E0FC01648B411101C041E06A
:1022E000FC01458B0895462F0C94681180910F02D4
:1022F000882361F09FB7F89420910F0280910D021E
:10230000213019F489BF9FBF08958FBF0895FC0144
:1023100077FD64C080859185681779070CF05EC0F1
:1023200057FD5CC082859385481759070CF056C04D
:1023300086898230B1F0833029F1813041F4848183
:102340009581841B950BAB01BC0161507109213053
:10235000310509F108F443C02230310509F463C0A6
:10236000089584819581DC01A61BB70BBD016150E6
:10237000710986819781DC01A41BB50BAD01415029
:102380005109E5CF86819781861B970BBA01AC0175
:1023900041505109DCCFCA0157FD0796A3E095953E
:1023A0008795AA95E1F7A481B5818A9F90018B9FBB
:1023B000300D9A9F300D1124620F731F078CF0A10E
:1023C000E02DE60FF71F4770552721E030E001C0F0
:1023D000220F4A95EAF78081822B80830895CA01F3
:1023E00057FD079633E0959587953A95E1F7A481D7
:1023F000B5818A9F90018B9F300D9A9F300D1124DB
:10240000620F731F078CF0A1E02DE60FF71F4770D6
:10241000552781E090E001C0880F4A95EAF7809542
:1024200090818923DACFCA0157FD079623E095955D
:1024300087952A95E1F7A481B5818A9F90018B9FAA
:10244000300D9A9F300D1124620F731F078CF0A17D
:10245000E02DE60FF71F4770552721E030E001C05F
:10246000220F4A95EAF780818227B7CF20910F0289
:10247000222381F03FB7F89420910F02213069F4B4
:1024800029B720930D0249B720910E0220952423ED
:1024900029BF3FBF8DB99EB9089530930D02FACF81
:1024A0008FB90000779BFECF8FB108954F925F9256
:1024B0006F927F928F929F92AF92BF92CF92DF9254
:1024C000EF92FF920F93CF93DF93CDB7DEB73C012E
:1024D000290150E070E00E94B70D85E991E0F30119
:1024E00091838083148E138E4114510421F481E171
:1024F000482E82E0582EF301568E458E10A2178E7C
:102500008FEF84A385A386A387A300A7C5AAD6AA15
:10251000E7AAF0AE81AE92AEA3AEB4AE80E586AFD0
:1025200017AEDF91CF910F91FF90EF90DF90CF909A
:10253000BF90AF909F908F907F906F905F904F90E3
:10254000089525E931E0FC0131832083878D90A136
:10255000009711F00C943B1B08951F93CF93DF93CA
:10256000EC018D8D9E8D009711F1162F69A1062E1D
:10257000000C770B0E9402098D8D9E8DDC01ED9180
:10258000FC910190F081E02D60E009958D8D9E8D8C
:10259000DC01ED91FC910190F081E02D612F099516
:1025A0008D8D9E8DDF91CF911F910C941709ADA554
:1025B000BEA59C918BA9809589238C938B8D9C8D36
:1025C000892B31F0862FDF91CF911F910C945012FF
:1025D00028E030E080E8A9A5BAA599A9462F4823AC
:1025E000C1F04C91942B9C93ABA5BCA59C914AA99E
:1025F000942B9C93ABA5BCA54C919AA99095942340
:102600009C9386952150310931F7DF91CF911F912D
:1026100008954C9190959423E6CF1F93CF93DF9329
:10262000EC01162F8D8D9E8D0097C9F04DA95EA9E6
:102630006FA978AD0E94F40866EA111167EACE012D
:102640000E94AD128D8D9E8D0097C9F049AD5AAD97
:102650006BAD7CADDF91CF911F910C94F4088B8D05
:102660009C8D892B21F08EAD9FAD0E943612EFA577
:10267000F8A990818CA9809589238083DDCFEFA56F
:10268000F8A980819CA9892B80838B8D9C8D892BB7
:1026900029F0DF91CF911F910C947611DF91CF91AA
:1026A0001F910895CF92DF92EF92FF921F93CF93E5
:1026B000DF93EC016B01142F8D8D9E8D009709F433
:1026C0004FC069A1062E000C770B0E9402098D8D68
:1026D0009E8DDC01ED91FC910190F081E02D60E098
:1026E00009957601CC24C394D12C11508D8D9E8DEB
:1026F0001F3F69F1B0E2CB16D104B8F00E94170970
:1027000069A1062E000C770B8D8D9E8D0E9402090B
:102710008D8D9E8DDC01ED91FC910190F081E02D7D
:1027200060E00995CC24C394D12C8D8D9E8DF7014A
:102730006491DC01ED91FC910190F081E02D09950F
:10274000BFEFCB1ADB0AEFEFEE1AFE0ACECFDF9116
:10275000CF911F91FF90EF90DF90CF900C941709CD
:10276000EDA5FEA590818BA98095892380837B01AF
:10277000115070F1F70184912B8D3C8D232B31F09A
:102780000E945012FFEFEF1AFF0AF2CF28E030E06C
:1027900040E8E9A5FAA599A9582F5423A9F050813A
:1027A000952B9083EBA5FCA590815AA9952B90833E
:1027B000EBA5FCA550819AA9909595239083469509
:1027C0002150310931F7DECF508190959523E9CF23
:1027D000DF91CF911F91FF90EF90DF90CF90089500
:1027E000FC01868197819C01295F3F4F37FF02C022
:1027F000295F3F4F83E0359527958A95E1F78481DE
:102800009581289FA001299F500D389F500D1124BC
:1028100070E060E0878D90A10C94C91B8F929F920D
:10282000AF92BF92CF92DF92EF92FF920F931F93DE
:10283000CF93DF93EC01862EB42EA22E902E8F8D97
:1028400098A1892B39F1CE010E94F0138E819F81CE
:102850006C817D81813291050CF046C0AC01405203
:10286000510957FF02C04F5F5F4F5595479563571A
:10287000710977FF02C06F5F7F4F75956795CC2414
:10288000C394D12CA0E2EA2EF12C03E710E023EB55
:1028900035E045C02E813F81C901079697FD079617
:1028A00023E0959587952A95E1F72C813D81AC0130
:1028B000429FC001439F900D529F900D11240E9492
:1028C0009F1A98A38F8F892B09F0BDCF80E0DF91ED
:1028D000CF911F910F91FF90EF90DF90CF90BF901D
:1028E000AF909F908F900895AC014054510957FFCD
:1028F00002C04F5F5F4F559547956255710977FF4D
:1029000002C06F5F7F4F75956795CC24C394D12C1F
:1029100080E4E82EF12C02E510E023E937E0CE0157
:102920000E94D90D8AA22D8D3E8D2115310509F405
:10293000A2C09B2DB11006C08E819F81809709F0A7
:1029400098C09CE399A3992009F43FC1C9010E9452
:10295000E208AA20F1F088A587FD1BC061E00E9473
:102960008A1961E088A50E94C61961E070E080E0E4
:1029700090E00E94F91860E088A50E94C6196AE0FC
:1029800070E080E090E00E94F91861E088A50E9464
:10299000C6192D8D3E8D2115310509F4E6C04DA9CE
:1029A0005EA96FA978ADC9010E94F40844E06FEAFE
:1029B00075E0CE010E9452136E816150CE010E94DB
:1029C000AD1244E06BEA75E0CE010E9452138AA179
:1029D00060E1813009F064E1CE010E94AD1244E073
:1029E00067EA75E0CE010E9452138FE88DAF8C81AB
:1029F0009D818038910509F0CAC08E819F81803405
:102A0000910509F0D0C08AA1813009F0BEC08FE9DC
:102A10008DAF12E16AEDCE010E94AD12612FCE01A1
:102A20000E94AD1261E8CE010E94AD126DADCE01E3
:102A30000E94AD1269EDCE010E94AD128AA162E240
:102A4000813009F061EFCE010E94AD1246E061EAEB
:102A500075E0CE010E9452138D8D9E8D009709F472
:102A6000A6C049AD5AAD6BAD7CAD0E94F40881E0C3
:102A70002ECF9DE367CF61E08EA10E948A1961E0AD
:102A80008FA10E948A198EA1082E000C990BFC01BF
:102A9000E354F54FE491F0E0EE0FFF1FEE5FF44FCB
:102AA000259134913EA72DA7FC01E857F54FE491FD
:102AB000EBAB8FA1082E000C990BFC01E354F54FF2
:102AC000E491F0E0EE0FFF1FEE5FF44FA591B4919B
:102AD000B8ABAFA7FC01E857F54FE491ECAB8C9194
:102AE000E82BEC938B8D9C8D892B31F0992009F488
:102AF00030CF0E94F1072DCF61E08CA10E948A198E
:102B000061E08DA10E948A198CA1082E000C990BFE
:102B1000FC01E354F54FE491F0E0EE0FFF1FEE5F90
:102B2000F44F259134913AA729A7FC01E857F54FB6
:102B3000E491E9AB8DA1082E000C990BFC01E35444
:102B4000F54FE491F0E0EE0FFF1FEE5FF44FA5911B
:102B5000B491BCA7ABA7FC01E857F54FE491EAABF1
:102B60008C91E095E823EC93F4CE8B8D9C8D892B92
:102B700021F08EAD9FAD0E943612EFA5F8A990818D
:102B80008CA980958923808311CF8FEC41CF80362B
:102B9000910549F48E819F81409729F48AA1813063
:102BA00021F480E18DAF12E035CF8FEAFBCFEFA5A6
:102BB000F8A980819CA9892B80838B8D9C8D892B82
:102BC00009F455CF0E94761152CFA110C4CEE7CEA2
:102BD0000F931F93CF93DF93DC0157FD46C01696EA
:102BE0008D919C911797481759070CF03EC077FFBD
:102BF00004C0260F371F70E060E01496CD91DC9181
:102C00001597CB01820F931FC817D9071CF49E019B
:102C1000261B370B1216130644F5FA0157FD37969B
:102C200083E0F595E7958A95E1F7EC9FC001ED9F6C
:102C3000900DFC9F900D1124680F791F5F96ED9108
:102C4000FC91E60FF71F4770552781E090E001C027
:102C5000880F4A95EAF7482F0130110559F0A8F07E
:102C60002E0F3F1F02301105E1F0DF91CF911F9130
:102C70000F9108952E0F3F1FE217F307B1F38191D3
:102C8000DF011197842B8C93F7CF80952E0F3F1F78
:102C9000E217F30751F39191DF01119798239C9369
:102CA000F7CFE217F30709F38191DF01119784272A
:102CB0008C93F7CFEF92FF920F931F93CF93DF93F5
:102CC000EC0177FD76C0EC80FD806E157F050CF081
:102CD00070C057FF04C0240F351F50E040E08E81C4
:102CE0009F81FA01E20FF31F8E179F071CF49C01CE
:102CF000241B350B121613060CF05BC0922F842F89
:102D00008695869586958E9DD0018F9DB00D112458
:102D10006A0F7B1FAF8DB8A1A60FB71F477049F18F
:102D200088E0841B482F682F70E0FB01E756FA4FBC
:102D3000E491281708F063C0621B71092FEF30E09F
:102D400002C0359527956A95E2F7E2230130110517
:102D500039F0B0F10230110561F58C91E82702C01D
:102D60008C91E82BEC93941720F12C813D81A20FDC
:102D7000B31FE92FE41BE83078F00230110521F58C
:102D80008E2F9C9190959C932C813D81A20FB31F17
:102D900088508830B0F7E770EE2359F0F0E0EF5636
:102DA000FA4FE49101301105F9F010F102301105EC
:102DB00019F1DF91CF911F910F91FF90EF9008953E
:102DC000E0958C91E823CECF81E00115110509F43F
:102DD00080E081959E2F8C932C813D81A20FB31FA3
:102DE00098509830C0F7D7CF8C91E82BEC93E1CF77
:102DF000E0958C91E823FACF8C91E827F7CF01304A
:102E0000110509F4ADCFE0F20230110509F4A5CFA8
:102E1000AE0DBF1DAECF0F931F93FA01DC01569686
:102E20004C915697423089F0433039F14130F9F4F2
:102E300014964D915C91DA01AE1BBF0BFD013197E9
:102E4000AB01BF010E945A1615C014964D915C91BA
:102E5000DA01A61BB70BBD01DC0116964D915C9102
:102E6000DA01AE1BBF0BFD013197621B730BAF0183
:102E70000E94E8151F910F91089516964D915C914F
:102E8000DA01A61BB70BBD01621B730BD9CF0F93E1
:102E90001F93FA01DC0156964C915697423091F0FF
:102EA000433049F1413009F514964D915C91DA01B6
:102EB000AE1BBF0BFD01E21BF30BAB01BF010E9478
:102EC000E81516C014964D915C91DA01A61BB70B5C
:102ED000BD0161507109DC0116964D915C91DA01DA
:102EE000AE1BBF0BFD01E21BF30BAF010E945A1694
:102EF0001F910F91089516964D915C91DA01A61BD2
:102F0000B70BBD0161507109D8CFCF92DF92EF921C
:102F1000FF920F931F93CF93DF93EC018D8D9E8DC6
:102F2000009709F46EC04DA95EA96FA978AD0E9403
:102F3000F40845E06CE875E0CE010E9452136C8104
:102F40006150CE010E94AD122E813F81C9010796CA
:102F500097FD079623E0959587952A95E1F72C81B3
:102F60003D81829F7001839FF00C929FF00C112491
:102F70000F8D18A18D8D9E8DE00EF11E009709F426
:102F800065C069A1062E000C770B0E9402098D8D89
:102F90009E8DDC01ED91FC910190F081E02D60E4CB
:102FA0000995680101E010E08D8D9E8DEC14FD0403
:102FB000C1F100321105B0F00E94170969A1062E77
:102FC000000C770B8D8D9E8D0E9402098D8D9E8D3C
:102FD000DC01ED91FC910190F081E02D60E4099518
:102FE00001E010E08D8D9E8DF60161916F01DC0195
:102FF000ED91FC910190F081E02D09950F5F1F4F3D
:10300000D3CF8B8D9C8D892B21F08EAD9FAD0E94EF
:103010003612EFA5F8A990818CA980958923808329
:1030200088CF0E9417098D8D9E8D009709F443C0AB
:1030300049AD5AAD6BAD7CADDF91CF911F910F9132
:10304000FF90EF90DF90CF900C94F408EDA5FEA5D3
:1030500080819BA9892B8083E016F10621F3F8017A
:1030600081918F012B8D3C8D232B19F00E945012E2
:10307000F3CF28E030E040E8E9A5FAA599A9582F58
:103080005423A9F05081952B9083EBA5FCA590814A
:103090005AA9952B9083EBA5FCA550819AA99095F0
:1030A0009523908346952150310931F7D5CF508132
:1030B00090959523E9CFEFA5F8A980819CA9892B4C
:1030C00080838B8D9C8D892B51F0DF91CF911F9147
:1030D0000F91FF90EF90DF90CF900C947611DF91DD
:1030E000CF911F910F91FF90EF90DF90CF900895B7
:1030F000FC0171836083128680E090E0A0ECBFE762
:1031000082839383A483B58386839783A087B187C3
:1031100008951F920F920FB60F9211242F933F9391
:103120008F939F93AF93BF938091DA029091DB02CC
:10313000A091DC02B091DD023091D90223E0230F8F
:103140002D3768F126E8230F0296A11DB11D2093AB
:10315000D9028093DA029093DB02A093DC02B09351
:10316000DD028091D5029091D602A091D702B09154
:10317000D8020196A11DB11D8093D5029093D6026D
:10318000A093D702B093D802BF91AF919F918F9136
:103190003F912F910F900FBE0F901F9018950196A1
:1031A000A11DB11DD4CF3FB7F8948091D502909165
:1031B000D602A091D702B091D80222B706B600FE7F
:1031C00005C02F3F19F00196A11DB11D3FBFBA2FB9
:1031D000A92F982F8827BC01CD01620F711D811D79
:1031E000911D42E0660F771F881F991F4A95D1F7FE
:1031F00008958F929F92AF92BF92CF92DF92EF92FB
:10320000FF926B017C010E94D3184B015C01C11439
:10321000D104E104F104E9F00E94731A0E94D3186A
:10322000681979098A099B09683E734081059105EF
:1032300070F321E0C21AD108E108F10888EE880E87
:1032400083E0981EA11CB11CC114D104E104F10457
:1032500029F7FF90EF90DF90CF90BF90AF909F90B5
:103260008F900895789483B78C6483BF87B781600B
:1032700087BF82E08EBD8EB581608EBD8FB58160C7
:103280008FBD85B5846085BD85B5806485BDEAE860
:10329000F0E0808183608083EBE8F0E080818160F2
:1032A000808387E886B91AB8089581508C3088F5F4
:1032B000E82FF0E0E25AF64E0C94961A8619861919
:1032C00089196A196E197119741989198919781966
:1032D0007E1982198FB58F778FBD08958FB58F7D39
:1032E000FBCF8FB5877FF8CF85B58F7D85BD0895DE
:1032F00080918B008F7780938B00089580918B0055
:103300008F7DF9CF80918B00877FF5CF83B78F7D3D
:1033100083BF0895CF93DF9390E0FC01E857F54F0A
:1033200024918354954FFC0184918823C9F090E047
:10333000880F991FFC01EE5EF44FA591B491FC013A
:10334000EE5FF44FC591D49161110DC09FB7F89411
:103350008C91209582238C938881282328839FBF7A
:10336000DF91CF910895623051F49FB7F8943C916A
:10337000822F809583238C93E8812E2BEFCF8FB7FC
:10338000F894EC912E2B2C938FBFEACF1F93CF9301
:10339000DF93282F30E0F901ED5AF54F8491F901C0
:1033A000E857F54FD491F901E354F54FC491CC237C
:1033B000A9F0162F81110E945519EC2FF0E0EE0FA5
:1033C000FF1FEE5FF44FA591B4918FB7F894EC9185
:1033D000111108C0D095DE23DC938FBFDF91CF9110
:1033E0001F910895DE2BF8CFCF93DF93282F30E085
:1033F000F901ED5AF54F8491F901E857F54FD49151
:10340000F901E354F54FC491CC23A1F081110E943E
:103410005519EC2FF0E0EE0FFF1FEE50F54FA59180
:10342000B491EC91ED2381E090E009F480E0DF912C
:10343000CF91089580E090E0FACFAF92BF92CF9203
:10344000DF92EF92FF920F931F93CF93DF936C0164
:103450007B018B01040F151FEB015E01AE18BF0845
:10346000C017D10759F06991D601ED91FC910190F7
:10347000F081E02DC6010995892B79F7C501DF910F
:10348000CF911F910F91FF90EF90DF90CF90BF9061
:10349000AF900895FB0101900020E9F73197AF014B
:1034A000461B570BDC01ED91FC910280F381E02D6E
:1034B00009946115710511F00C944A1A90E080E0AE
:1034C00008950E94C41B08950E9432190E94631A35
:1034D0000E94C005C0E0D0E00E94B9072097E1F348
:1034E0000E940000F9CF0895A1E21A2EAA1BBB1B6F
:1034F000FD010DC0AA1FBB1FEE1FFF1FA217B307C0
:10350000E407F50720F0A21BB30BE40BF50B661FD5
:10351000771F881F991F1A9469F760957095809599
:1035200090959B01AC01BD01CF010895EE0FFF1FE7
:103530000024001C0BBE0790F691E02D09940F9318
:103540001F93CF93DF938230910510F482E090E0D7
:10355000E091E002F091E10230E020E0B0E0A0E094
:10356000309799F42115310509F44AC0281B390B0D
:1035700024303105D8F58A819B816115710589F167
:10358000FB0193838283FE0111C04081518102813E
:10359000138148175907E0F04817590799F4109715
:1035A00061F012960C93129713961C933296CF01EA
:1035B000DF91CF911F910F9108950093E002109336
:1035C000E102F4CF2115310551F04217530738F0CD
:1035D000A901DB019A01BD01DF01F801C1CFEF01B3
:1035E000F9CF9093E1028093E002CDCFFE01E20F8C
:1035F000F31F819391932250310939832883D7CFC8
:103600002091DE023091DF02232B41F42091020150
:10361000309103013093DF022093DE0220910001FC
:10362000309101012115310541F42DB73EB740918C
:10363000040150910501241B350BE091DE02F0914D
:10364000DF02E217F307A0F42E1B3F0B2817390700
:1036500078F0AC014E5F5F4F2417350748F04E0FEE
:103660005F1F5093DF024093DE02819391939FCFBF
:10367000F0E0E0E09CCFCF93DF930097E9F0FC010E
:10368000329713821282A091E002B091E102ED0123
:1036900030E020E01097A1F420813181820F931F48
:1036A0002091DE023091DF022817390709F061C04E
:1036B000F093DF02E093DE02DF91CF910895EA01FB
:1036C000CE17DF07E8F54A815B819E014115510560
:1036D000B1F7E901FB83EA8349915991C40FD51FE2
:1036E000EC17FD0761F4808191810296840F951F8C
:1036F000E90199838883828193819B838A83F0E0A7
:10370000E0E012968D919C9113970097B9F52D9159
:103710003C911197CD010296820F931F2091DE02FA
:103720003091DF022817390739F6309751F510929A
:10373000E1021092E002B093DF02A093DE02BCCF60
:10374000D383C28340815181840F951FC817D90745
:1037500061F44E5F5F4F88819981480F591F5183F3
:1037600040838A819B81938382832115310509F0EF
:10377000B0CFF093E102E093E0029ECFFD01DC01C7
:10378000C0CF13821282D7CF81E090E0F8940C94DE
:10379000D01BDC0101C06D9341505040E0F708950B
:1037A00015E0C3E9D5E004C0FE010E94961A2196F7
:0A37B000C439D107C9F7F894FFCF20
:1037BA000000E20280001C001D0001003A696768EF
:1037CA00004C75780065434F323A002070706D00E6
:1037DA0054564F433A0020707062005265643A2092
:1037EA0000477265656E3A2000426C75653A2000A2
:1037FA00566F6C743A00445553543A00206D672F43
:10380A006D3300000000008608B50823084F08261B
:10381A00082D0840080000000096101D1A230818F9
:10382A000B611AC60BC70BE60BCE0BDA0B190BC6CC
:10383A000BA20D290DF60B2F0C680CAD0C2A0DCA24
:10384A000C0000000096101D1A2308180B8711C6D9
:10385A000BC70BE60BCE0BDA0B190BC60BA20D0D21
:0E386A001347170B17680CAD0C2A0DCA0C0083
:00000001FF
